:020000040800F2
:10000000107C00209D0100087F240008FF210008CB
:100010007D2400082303000865400008000000005C
:100020000000000000000000000000000D26000895
:1000300061050008000000000B2600080F260008DC
:10004000B7010008B7010008B7010008B7010008B0
:10005000B7010008B7010008B7010008B7010008A0
:10006000B7010008B7010008B7010008B701000890
:10007000B7010008B7010008B7010008B701000880
:10008000B7010008B7010008B7010008B701000870
:10009000B7010008B7010008B7010008B701000860
:1000A000B7010008B7010008B7010008B701000850
:1000B000B7010008B5260008B7010008B70100081D
:1000C000B7010008B7010008B7010008B701000830
:1000D000B7010008B7010008B7010008B701000820
:1000E000B7010008B7010008B7010008B701000810
:1000F000B7010008B7010008B7010008B701000800
:10010000B7010008B7010008B7010008B7010008EF
:10011000B7010008B7010008B7010008B7010008DF
:10012000B7010008B7010008B7010008B7010008CF
:10013000B7010008B7010008B7010008B7010008BF
:10014000B7010008B7010008B701000881240008C2
:10015000B7010008B7010008B7010008B70100089F
:10016000B7010008B7010008B7010008B70100088F
:10017000B7010008B7010008B7010008000000003F
:10018000B7010008B7010008DFF80CD000F08CF8C8
:1001900000480047B5440008107C0020064880470E
:1001A00006480047FEE7FEE7FEE7FEE7FEE7FEE75C
:1001B000FEE7FEE7FEE7FEE7992600088901000852
:1001C0002DE9F05F0546002092469B46884606468C
:1001D000814640241BE0284641464746224600F01F
:1001E00053F853465A46C01A914110D31146184647
:1001F000224600F03AF82D1A67EB01084F462246D6
:100200000120002100F031F817EB00094E41201EBB
:10021000A4F10104DFDC484631462A464346BDE8E6
:10022000F09F40EA01039B0703D009E008C9121FB1
:1002300008C0042AFAD203E011F8013B00F8013BA0
:10024000521EF9D27047D2B201E000F8012B491ECC
:10025000FBD270470022F6E710B513460A46044663
:100260001946FFF7F0FF204610BD202A04DB203A94
:1002700000FA02F1002070479140C2F1200320FAF9
:1002800003F3194390407047202A04DB203A21FAF7
:1002900002F00021704721FA02F3D040C2F120029F
:1002A0009140084319467047064C074D06E0E06848
:1002B00040F0010394E8070098471034AC42F6D3AD
:1002C000FFF766FFA8450008C845000870B58C1800
:1002D00010F8015B15F0070301D110F8013B2A115A
:1002E00006D110F8012B03E010F8016B01F8016B47
:1002F0005B1EF9D12B0705D40023521E0DD401F843
:10030000013BFAE710F8013BCB1A921C03E013F80B
:10031000015B01F8015B521EF9D5A142D8D3002040
:1003200070BDFEE7002070470020704710B5002226
:100330000449054802F022FC0449034802F018FC75
:10034000002010BD0C140020680300200C0C0020BD
:100350002DE9F047DFF8AC910446A9F178058A460B
:1003600000786649DFF898816A78002701262D28F1
:1003700025D0362846D0294670234A6AB1F80310A2
:1003800005F18006732867D0452876D0732866D09B
:10039000702835D160786F2832D1A07872282FD19B
:1003A000E07875282CD1326033716F207071F18044
:1003B000BDE8F04753480821083000F0BBB860782A
:1003C0002E281DD1A0782F281AD1E078302817D1F7
:1003D00062B96E700F604A4801F026FA484804215D
:1003E000803801F033FBE969C8F8641052462146B1
:1003F0004448FFF716FF99ED010A85ED0B0AAF702F
:10040000BDE8F08760784028FAD1A0784A28F7D173
:10041000E0785428F4D162B96E700F60384801F06A
:1004200003FA37480421803801F010FB296AC8F824
:100430006410524621463348FFF7F3FE99ED010A56
:1004400085ED1A0AD5ED1B0A30EE600A85ED180A13
:1004500085ED170AAE70D3E7607874280ED0607807
:100460007028CDD1A0787228CAD1E0787528C7D17C
:10047000732032603071737199E733E0A0786F2890
:10048000BED1E0787028BBD14FF0804047631C4854
:1004900001F0DBF91A480421803801F0F1FA9FEDF0
:1004A0001A0A1A4885ED110A85ED100A85ED120A1F
:1004B00085ED130A85ED140A2F8185ED160A85ED69
:1004C000150AAF81EF8185ED1B0A476207616F70E6
:1004D000686A3060182030711B207071B5F8030015
:1004E000F08065E754F8011FC8F858106168C8F833
:1004F0005C10A168C8F8601082E700002404004086
:10050000E40200207800002000000000000001400C
:1005100070B50D4604460146054802F029FB044823
:1005200002F00AFB20462968FFF712FF002070BD89
:1005300068030020094A10B5D2F89022D2F814229C
:100540000AB1012010BD0A460146044802F016FB1C
:10055000BDE81040014802F06FBB000068030020B6
:100560007047704770B5044600F0F0F80546601C0F
:1005700002D004480078044400F0E8F8401BA04290
:10058000FAD370BD380100202DE9F84F00224FF05A
:10059000010803254FF00F0E0B6808FA02F4234000
:1005A000A3426ED14E68012E05D0022E03D0112E2B
:1005B00001D0122E12D186684FEA420C05FA0CF7D0
:1005C000BE43CF6807FA0CF7374387604668A643F7
:1005D0000C79C4F30014944034434460C668570057
:1005E00005FA07FC8C6826EA0C06BC403443C4605C
:1005F0004C68022C01D0122C13D1D40800EB8404D7
:10060000A346D4F8209054074FEAD46A0EFA0AF6AB
:1006100029EA06090E6906FA0AF646EA0906CBF83F
:10062000206006680C7926EA0C0604F00304BC403E
:10063000344304604C68E40065D5364C266846F4C3
:1006400080462660246822F0030604F48044009467
:10065000314C3444A446D4F808489607370F0EFAB4
:1006600007F6B4432D4EB04201D1002624E02C4EB3
:10067000B04201D101261FE02A4EB04202D102262B
:100680001AE040E0284EB04201D1032614E0274E84
:10069000B04201D104260FE0254EB04201D105261B
:1006A0000AE0244EB04201D1062605E0224EB042B7
:1006B00001D1072600E00826BE402643CCF8086892
:1006C0001E4E34684F689C43FF0300D51C433460C2
:1006D0001A4C241D26684F689E43BF0300D51E4355
:1006E0002660164E083634684F689C43FF0200D5DA
:1006F0001C433460114E0C3634684F689C43BF0273
:1007000000D51C433460521C102AFFF445AFBDE8ED
:10071000F88F0000443802400030014000000240E1
:100720000004024000080240000C02400010024099
:100730000014024000180240001C0240003C01402E
:100740000AB1816170470904FBE700000148806835
:100750007047000038010020024881680278114487
:1007600081607047380100200B4810B5016841F4E2
:1007700000710160016841F480610160016841F429
:1007800080710160032000F06FF8002000F006F88F
:1007900000F024F8002010BD003C024070B50D4D63
:1007A00004464FF47A712878B1FBF0F00A490968E1
:1007B000B1FBF0F000F096FF48B9102C07D20022F0
:1007C0002146501E00F030F800206C6070BD012002
:1007D00070BD000038010020440100200A4808B51F
:1007E000016841F480410160006800F4804000909D
:1007F0000548001F016841F080510160006800F069
:100800008050009008BD000044380240002809DBF9
:1008100000F01F02012191404009800000F1E0201A
:10082000C0F8001170470000F0B40E4B1B680C4676
:10083000C3F30223C3F10705042D00D90425191DB4
:10084000072901D2002300E0DB1E012606FA05F18C
:10085000491E214099409E40761E16403143F0BC0F
:1008600003F001BC0CED00E0064900F00702086847
:100870004FF6FF03184040EA0220034A1043086085
:10088000704700000CED00E00000FA0570470068BA
:10089000416200207047F0B50368586A39B19C6A1C
:1008A0004FF4827600EB144400204D1E0AE040EA2B
:1008B000024098620FE006EB8007DF59401C04EB12
:1008C0001744C0B2A842F6D344EA02404FF4807203
:1008D00002EB810158500020F0BDD0F8040402F072
:1008E000FEBBC1EBC10200EB8202D0F80404926CA3
:1008F00002F051BBC1EBC10200EB8202D0F804044C
:10090000D2F8082202F0AABBD0F8040402F0E9BB36
:1009100070B504460B0601F00F00C0EBC00104EBFC
:1009200081014FF001024FF0000503D581F83D2011
:100930003C3103E081F8FD5101F5FE71087094F837
:10094000BC03012808D084F8BC23206802F040FFD3
:1009500084F8BC53002070BD022070BD70B5044601
:1009600001F00F006268904201D9012070BD0B06B2
:1009700001F00F01C1EBC10104EB81014FF0010255
:100980004FF0000503D581F83D203C3103E081F8AC
:10099000FD5101F5FE718D70087094F8BC030128BB
:1009A00008D084F8BC23206803F0EEF884F8BC5328
:1009B000002070BD022070BD01F00F01C1EBC1012C
:1009C00000EB8100D0F8140270472DE9F041044695
:1009D0000F0601F00F00C0EBC00104EB81014FF0E6
:1009E00001064FF0000503D581F83D603C3103E07E
:1009F00081F8FD5101F5FE7108708A60CB704A786C
:100A000002B1C880022B00D10D7194F8BC030128FB
:100A100009D084F8BC63206802F02AFE284684F8D6
:100A2000BC53BDE8F0810220FBE770B50C4601F035
:100A30000F05C5EBC50100EB8101C1F81032C1F80B
:100A400008220023C1F8143281F8FD3181F8FC51ED
:100A5000036901F5FE71012B00D10A612207027CB6
:100A6000006803D003F0E8F8002070BD02F0D4FF66
:100A7000FAE770B504460D4601F00F006168884240
:100A800001D9012070BD29064FF000064FF0010288
:100A900007D5C0EBC00104EB810181F83D203C315A
:100AA00007E0C5EBC50104EB810181F8FD6101F5AB
:100AB000FE718A70087094F8BC03012807D084F88E
:100AC000BC23206803F08CF8280702D007E002203E
:100AD00070BD217C04F57172206803F029F884F858
:100AE000BC63002070BD70B50C4601F00F05C5EB6E
:100AF000C50100EB81010B658A6400234B6501236E
:100B000081F83D3001F83C5F0369012B00D10A6197
:100B10002207027C006803D003F08EF8002070BD2D
:100B200002F07AFFFAE700002DE9FC5F0568044651
:100B3000284603F0AAF900287ED1206803F0D1F9F5
:100B4000002879D0206803F0CCF9800704D520680C
:100B5000416901F002014161206803F0C2F901031B
:100B600004F571704FF0010A4FF0080B009075D535
:100B70000026206803F094F90746DFF808946BE03C
:100B8000F80767D0F1B2206803F0A3F98046C007E8
:100B900007D005EB4611C1F808AB3146204601F0FD
:100BA00075FC5FEA087032D52068016C00EB4610D6
:100BB0000191D0F8081B2269012A019A0FD0F24B4B
:100BC0009A4214D1090403D54FF40041C0F8081B20
:100BD000204600F0C9FA206901280FD013E04A45E9
:100BE00005D9090403D54FF40041C0F8081B20467D
:100BF00000F0BAFA01984845EDD804E020680121D8
:100C0000009A02F095FF05EB4611C1F808BB5FEAB8
:100C1000C86004D505EB46111020C1F8080B5FEA47
:100C200088600ED52069012804D120680121009A2E
:100C300002F07EFF202100E0A1E105EB4610C0F8A4
:100C4000081B5FEA884005D505EB46104FF40051BC
:100C5000C0F8081B7F08761C002F91D1206803F094
:100C600040F940034FF000095FD5206803F011F907
:100C70000746002657E0F80753D0F1B2206803F08A
:100C800016F98046C00726D006F00F020AFA02F0D5
:100C9000D5F834288243C5F8342805EB4610C0F84F
:100CA00008A92069012807D1C6EBC60004EB800023
:100CB000D0E9112111448164F1B22046FFF711FE01
:100CC0002069012807D136B9206D20B9206801219B
:100CD000009A02F02DFF5FEA087003D505EB46117C
:100CE000C1F808B95FEAC86004D505EB46111020C9
:100CF000C1F808095FEA486004D505EB46104021B9
:100D0000C0F808195FEA887004D505EB4610022187
:100D1000C0F808195FEA086003D53146204601F0A3
:100D200023FC7F08761C002FA5D1206803F0D9F89A
:100D3000002811DAD5F8040820F00100C5F80408ED
:100D400094F8F40301282BD0204600F0F1F9206834
:100D5000416901F000414161206803F0C2F80005DB
:100D60000BD5D5F80808C00702D0204600F024FAB9
:100D70002068416901F400614161206803F0B1F825
:100D8000C00461D5D5F8040820F00101C5F80418A5
:100D90001021206803F05AF800214FF67F321AE044
:100DA00084F8F49300212046FFF770FDCFE700BFE1
:100DB00005EB4110C0F80829D0F8003923F40013DE
:100DC000C0F80039C0F8082BD0F8003B23F400131A
:100DD000C0F8003B491C60688842E9D8D5F81C0877
:100DE00040F00111C5F81C18206B002828460DD0D2
:100DF000D0F8840840F00B00C5F88408D5F8440802
:100E000040F00B012846C5F844180DE0D0F814084E
:100E100042F22B010843C5F81408D5F8100840F039
:100E20000B012846C5F81018D0F8000820F4FE6120
:100E3000C5F80018217C2068009A02F079FE20682D
:100E4000416901F480514161206803F04AF880044F
:100E500015D5206802F04CFC206803F009F8E0602A
:100E600000F05CFA0146227B206803F075F820460A
:100E700000F048F92068416901F40051416120689F
:100E800003F02FF8C00634D52068816921F01001E5
:100E900081612F6A07F00F00C0EBC00004EB8006F1
:100EA000C7F3434006F5FE76022802D0062811D08B
:100EB0001AE047F6F070074216D0C7F30A12174639
:100EC0002846F16803F011F8F0683844F060B06922
:100ED000384408E008222846009903F006F8B06973
:100EE000C7F30A110844B0612168886940F0100016
:100EF0008861206802F0F5FF000707D5204600F062
:100F00001BF92168486900F008004861206802F078
:100F1000E8FFC00208D50021204600F037F821681C
:100F2000486900F480104861206802F0DAFF80020E
:100F300008D50021204600F02DF82168486900F40A
:100F400000104861206802F0CCFF400007D5204621
:100F5000FFF7C3FC2068416901F0804141612068CE
:100F600002F0BFFF40070AD520684568680702D530
:100F70002046FFF7C9FC2068416829434160BDE86D
:100F8000FC9F00000A30544F0A31544FD0F804043B
:100F900002F0F6B8D0F8040402F0F4B82DE9F041FC
:100FA0008AB0040005D094F8BD032668002520B15E
:100FB00008E001200AB0BDE8F08184F8BC53204667
:100FC00000F05EF8032084F8BD03F06BC00500D488
:100FD0002561206802F01AFD04F1100128228846DC
:100FE0006846FFF71EF994E80F0002F09BFB02260B
:100FF000C8BB0021206802F086FF002001270EE018
:10100000C0EBC00104EB810181F83D7001F83C0F99
:10101000C880CD708D60CD60401CC0B24D616168EC
:101020008142EDD8002011E0C0EBC00104EB81014A
:1010300081F8FD5181F8FC0181F8FF51C1F804529B
:10104000C1F80852401CC0B2C1F810526168814218
:10105000EAD8282241466846FFF7E3F894E80F00F3
:1010600002F00EFC10B184F8BD63A2E784F838509A
:1010700084F8BD73206802F0F7FB00209AE70000B7
:1010800010B586B0044614216846FFF7E3F82068DF
:10109000B0F1A04F2FD119480021026842F001029F
:1010A0000260006800F0010005904FF4C05000900D
:1010B0000220CDE90101032003900A200490694633
:1010C0000F48FFF761FA0D48001D016841F08001EB
:1010D00001600A481430016841F4804101600068F1
:1010E000002200F48040059011464320FFF79CFB4E
:1010F0004320FFF78BFB06B010BD000030380240E4
:101100000000024070B50446C068012570B1022895
:1011100001D0FFF726FA2946D4F8040402F083F838
:10112000D4F80404BDE8704002F043B80025F2E7AB
:10113000D0F8040402F065B8D0F8040402F067B8EF
:1011400010B5044690F8BC0301280BD0012084F8A8
:10115000BC0384F83810206802F0ECFE002084F80C
:10116000BC0310BD022010BDD0F8042400F571713D
:10117000104602F064B810B50446006894F8BC1339
:10118000012906D0012184F8BC13A16A012902D0EB
:1011900008E0022010BDA169012903D0816B41F450
:1011A00080318163206802F053FB206802F038FE32
:1011B000002084F8BC0310BD10B50446D0F8040428
:1011C00002F07CF82068D0F8001E41F00101C0F860
:1011D000001E206A002804D00248016841F0060180
:1011E000016010BD10ED00E02DE9F0470E4605004E
:1011F00065D0DFF81481D8F80000F7B200F00F00D6
:10120000B04207D288F80070D8F8000000F00F0054
:10121000B04254D128683D4C810712D5400703D510
:10122000206840F4E05020602878000703D520684B
:1012300040F4604020602068A96820F0F000084376
:1012400020602878C0072DD0304968680839012807
:1012500012D0022813D0032811D009688907002969
:101260002DDA216821F0030101432160FFF76EFAB6
:10127000814641F2883A0EE009688903EFE7096880
:101280008901ECE7FFF762FAA0EB0901514502D9A9
:101290000320BDE8F0872068696800F00C00B0EB1F
:1012A000810FEFD1D8F80010404601F00F01B14294
:1012B00007D90770006800F00F00B04201D001208C
:1012C000E7E72878400705D52068E96820F4E05072
:1012D000084320602878000706D52068296920F493
:1012E000604040EAC100206000F01EF82168084A12
:1012F000C1F30311515CC840064908600648006804
:10130000FFF74CFA0020C4E7003C024008380240D6
:1013100098450008440100203C0100200148006875
:101320007047000044010020154810B5006810F017
:101330000C02144813D04110042A0FD0082A0ED1F1
:101340000F4C241F2268236802F03F025B0207D57E
:101350002068C0F38810A0FB010106E0084610BD1C
:101360002168C1F38811A1FB00010023FEF728FFCB
:101370002168C1F30141491C4900B0FBF1F010BDE7
:10138000083802400024F4002DE9F84F040076D01C
:101390002078DFF838A3CE4DC00749D0DAF8001026
:1013A0005046C1F38101012908D00068C0F38100D3
:1013B00002280AD1281D0068400206D5286880034B
:1013C00036D560680028E2D032E06068B0F5803F32
:1013D00010D0B0F5A02F286810D020F480302860FD
:1013E000286820F4802028606068A0B1FFF7AEF97B
:1013F00006460CE0286840F48030F4E740F4802092
:101400002860F7E7FFF7A2F9801B642873D82868E3
:101410008003F7D50CE0FFF799F9064605E000BF19
:10142000FFF794F9801B6428F0D828688003F7D46C
:101430002078DFF8A08280074FF000093ED5DAF867
:101440000010504611F00C0F09D00068C0F3810065
:1014500002280BD19D48001F0068400206D428686E
:10146000800715D5E068012809D111E0E068B8B11E
:101470000120C8F80000FFF769F9064605E020E101
:10148000FFF764F9801B0228C0D828688007F7D5C9
:101490002868216920F0F80040EAC10028600DE0CA
:1014A000C8F80090FFF752F9064604E0FFF74EF93E
:1014B000801B02281FD828688007F7D420780007EF
:1014C00022D5824E844861696C3671B10121016078
:1014D000FFF73CF9074604E0FFF738F9C01B022884
:1014E00009D830688007F7D50EE0C0F80090FFF704
:1014F0002DF9074605E082E0FFF728F9C01B022816
:101500007DD830688007F7D42078400768D5DFF8A9
:10151000BCB100270BF1380BDBF80000C0000BD486
:10152000DBF8001041F08051CBF80010DBF8000030
:10153000012700F080500090684E3068C00510D43C
:10154000306840F480703060FFF700F9009005E0EB
:10155000FFF7FCF80099401A022850D83068C005FF
:10156000F6D55A4EA068683601280FD00528306895
:1015700010D020F001003060306820F004003060AE
:10158000A068B8B1FFF7E2F800900FE0306840F0D3
:101590000100F4E740F004003060F7E7FFF7D6F809
:1015A0000099411A41F28830814266D8306880073C
:1015B000F4D50EE0FFF7CAF8009007E0FFF7C6F891
:1015C0000099411A41F28830814256D8306880072C
:1015D000F4D42FB1DBF8001021F08051CBF80010CB
:1015E000A069D0B3DAF800205146C2F38102022A82
:1015F0004AD00228484607D0C8F8600000E03CE026
:10160000FFF7A4F804463BE04746C8F86000FFF740
:101610009DF8064605E000BFFFF798F8801B0228FA
:101620002BD828688001F7D4D4E907010843A16AC0
:101630002B4A490802EB0141626A41EA82110843E0
:1016400094F82C1040EA01612048001F016001203D
:101650003866FFF77BF8044605E034E0FFF776F8DC
:10166000001B022809D828688001F7D52BE000BFAD
:10167000FFF76CF8001B022802D90320BDE8F88FA1
:1016800028688001F4D41EE00128F7D00868E269D8
:1016900000F48001914214D1226A00F03F0191428E
:1016A0000FD147F6C071626A0140914209D1A26A26
:1016B00000F44031914204D1E16A00F07060884248
:1016C00001D00120DAE70020D8E700000838024006
:1016D0000038024000004742800E47420070004040
:1016E0000000FFFF10B5401EB0F1807F01D3012044
:1016F00010BD4FF0E02460610F21601702F0B3FCD1
:101700000020A06107202061002010BD70477047B5
:1017100070B590F83C20012A32D0012480F83C407A
:10172000022280F83D2003685A689D6822F0700606
:101730000A6832435A60134B02689A4214D0B2F1DD
:10174000804F11D0104B9A420ED0104B9A420BD0C2
:101750000F4B9A4208D00F4B9A4205D00E4B9A423B
:1017600002D00E4B9A4204D1496825F080031943F8
:10177000916080F83D40002180F83C10084670BD23
:10178000022070BD0000014000040040000800403D
:10179000000C0040000401400040014000180040DF
:1017A00010B5040003D094F83D0010B107E001200B
:1017B00010BD002084F83C00204600F00DF8022007
:1017C00084F83D00211D206800F07AFF012084F894
:1017D0003D00002010BD000008B501681048B1F1BF
:1017E000804F14D00F4A914219D1016841F0020193
:1017F00001600068002200F00200009001211D201D
:10180000FFF712F8BDE808401D20FEF7FFBF016892
:1018100041F001010160006800F00100009008BD86
:1018200040380240000400400168CA6842F00102EA
:10183000CA600068816801F00701062903D00168C9
:1018400041F001010160002070470168CA6822F080
:101850000102CA600068016A41F21112114207D107
:10186000016A9210114203D1016821F00101016067
:101870000020704770B5044690F83C00012817D04E
:10188000012584F83C50022084F83D0020688268DD
:1018900022F0770222F47F4282600868502830D01C
:1018A0000DDC20284DD005DC98B310283BD148E052
:1018B000022070BD302844D0402834D139E060285F
:1018C00028D0702806D0B0F5805F2CD0B0F5005F2E
:1018D00029D10AE0CB68D1E90121206800F061FF3D
:1018E0002068816841F0770109E0CB68D1E90121E6
:1018F000206800F056FF2068816841F480418160D3
:1019000011E0CA684968206801F020F85021206879
:1019100007E016E0CA684968206801F028F86021ED
:10192000206800F048FF84F83D50002084F83C0017
:1019300070BDCA684968206801F008F84021206835
:10194000EFE7226801461046EBE72DE9F0410D462E
:10195000040003D094F83D0018B108E00120BDE870
:10196000F081002084F83C00204600F03BF8022083
:1019700084F83D002068816844F207029143816049
:10198000211D206800F09CFE226890689169166A0B
:101990002B68AF69034340F20330814341EA0721DA
:1019A000A868EF6908434FF6FC418843E96840EABC
:1019B0000720014328692F6A000140EA07300843E5
:1019C00069686D6926F0AA0646EA05152943936001
:1019D0002268906120680162012084F83D000020A7
:1019E000BDE7000010B586B0044614216846FEF736
:1019F00031FC13492068884220D112480021026836
:101A000042F001020260006800F0010005900D48FC
:101A10001438026842F010020260006800F0100002
:101A200005904FF420600090022001900120CDE944
:101A30000201049069460448FEF7A6FD06B010BDF9
:101A400000000140443802400010024010B5044636
:101A5000006891B1042904D00122002100F094FE15
:101A6000206801225FF0040100F08EFE206801680A
:101A700041F001010160002010BD01220021F3E7C7
:101A800010B504460068D9B1042904D000221146DB
:101A900000F07AFE206800225FF0040100F074FE7E
:101AA0002068016A41F21112114207D1016A9210B5
:101AB000114203D1016821F001010160002010BD35
:101AC00000221146EAE7704770B5044600680169D4
:101AD0004FF00005C943890715D4C168C943890778
:101AE00011D4E91E016101202077206880698007F8
:101AF000204602D0FFF7E7FF04E000F0C1F82046DF
:101B000000F043F9257720680169C943490717D4D4
:101B1000C168C943490713D46FF004010161022071
:101B200020772068806910F4407F204602D0FFF7BC
:101B3000CAFF04E000F0A4F8204600F026F925775B
:101B400020680169C943090716D4C168C943090758
:101B500012D46FF008010161042020772068C06969
:101B60008007204602D0FFF7AEFF04E000F088F8BF
:101B7000204600F00AF9257720680169C943C906A3
:101B800017D4C168C943C90613D46FF010010161AD
:101B9000082020772068C06910F4407F204602D0DA
:101BA000FFF791FF04E000F06BF8204600F0EDF83D
:101BB000257720680169C943C90708D1C168C943AD
:101BC000C90704D1891E0161204600F001F920688F
:101BD0000169C943090609D4C168C943090605D486
:101BE0006FF0800101612046FFF790FD20680169D8
:101BF000C943490609D4C168C943490605D46FF0F1
:101C000040010161204600F0F9FA20680169C943EA
:101C100089060BD4C168C943890607D46FF0200137
:101C200001612046BDE87040FFF771BD70BD000046
:101C300010B586B0044614216846FEF70BFB2068F9
:101C4000B0F1804F15D10C480021026842F001022A
:101C50000260006800F00100059020200090022042
:101C6000CDE901010120CDE9031069460348FEF7E3
:101C70008BFC06B010BD000030380240000002406E
:101C8000704770B5044690F83C000D4601280DD011
:101C9000012684F83C60022084F83D0042B1042A09
:101CA00018D0082A2AD00C2A4DD139E0022070BD64
:101CB000206800F089FD2068816941F00801816198
:101CC0002068816921F004018161206881692A69A5
:101CD000114311E0206800F0A7FD2068816941F4FC
:101CE000006181612068816921F4806181612068DF
:101CF00081692A6941EA0221816124E0206800F0BB
:101D0000C9FD2068C16941F00801C1612068C1694D
:101D100021F00401C1612068C1692A69114311E001
:101D2000206800F0EBFD2068C16941F40061C161E9
:101D30002068C16921F48061C1612068C1692A6994
:101D400041EA0221C16184F83D60002084F83C0032
:101D500070BD10B5040003D094F83D0010B107E049
:101D6000012010BD002084F83C00204600F00CF853
:101D7000022084F83D00211D206800F0A1FC012014
:101D800084F83D00002010BD7047704710B5044630
:101D90000068012200F0F8FC0B492068884202D05C
:101DA0000A49884203D1416C41F4004141642068F2
:101DB000816801F00701062903D0016841F00101A3
:101DC0000160002010BD000000000140000401403F
:101DD0002DE9F041FA492DED028B006888427DD152
:101DE000F84CF94FDFF8E483A0780026B6EE006ADD
:101DF000DFEDF75ADFEDF74A9FEDF75AF74DDFEDCC
:101E0000F83AB0EE004A9FEDF78A012804D0002886
:101E100065D094ED1C0A5DE1686A81B2E18008B288
:101E200060812A6912F00103E64A2370128903D007
:101E30002E61002802DB12B2891A00E0811A00EE3E
:101E4000101AF8EEC00A80EEA30AC0EE240A20EEB3
:101E5000840A20EE050A84ED0A0AA189E289411A62
:101E6000114409B200EE101AE181A081F8EEC00A17
:101E7000DD4980EEA40A20EE040A20EE050A84ED76
:101E80001B0AD4ED1A0A30EEC00A84ED150AB0EE32
:101E9000C01A11EE100A884201DA9FEDD40AC9482F
:101EA00084ED150AB0EEE00A143002F04DFAD4EDDC
:101EB000060A94ED161A80EEA30AD4ED150A30EE48
:101EC000C11A20EE010A94ED051A01EE200A84EDF4
:101ED000190A84ED0B0AD4ED0A0A01E06BE17AE0FD
:101EE000B84A70EE600A7432A2F13C01C4ED120AE5
:101EF000B0EEC00A081F02F0FDF894ED0F0A94ED51
:101F0000121AD4ED130AC0EE231A31EE602A94EDB2
:101F1000110AD4ED0D2A02EE820A94ED0E2A71EE1A
:101F2000202A00EEC41A22EE232AD4ED140A22EE4F
:101F3000062A71EE200A02EE220A01EEA00A84EDC2
:101F4000100AD4ED0B0AF5EEC00AF1EE10FA21DD0D
:101F500010EE100AB84201DBB0EE480A84ED1C0A0C
:101F6000D4ED1D0AB1EE601AB4EEC10AF1EE10FA1A
:101F700001D2B0EE410A84ED1C0AB4EEE00AF1EEA3
:101F800010FA06D8B5EEC00AF1EE10FA01DB30EE19
:101F9000800A9DE010EE100A404501D9B0EE650AB6
:101FA00084ED1C0AD4ED1D0AB4EEE00AF1EE10FA3D
:101FB0007DDC00BFB1EE601A84ED1C0AB4EEC10AEC
:101FC000F1EE10FA06DBB5EEC00AF1EE10FA7FD89A
:101FD00030EE600A7CE07B4A94ED0B0A7432A2F189
:101FE0003C01B0EEC00A081F02F084F8686A80B2B3
:101FF000E080296911F00101217007D02E6101B242
:10200000002905DB218909B2401A03E02189FBE799
:102010002089081A00EE100AF8EEC00A80EEA30A22
:10202000C0EE240A20EE840A20EE050A84ED0A0A96
:10203000D4ED0B1A71EEC00AF5EEC01AC4ED120A07
:1020400094ED0F0A94ED131A94ED0D3A80EE232AC5
:1020500070EEC12A94ED110A03EE220AD4ED0E2A85
:1020600030EE813A41EE440A62EEA32A94ED141A4E
:1020700062EE862A70EE810A02EE830A02EE200AE0
:10208000F1EE10FA84ED100A84DD10EE100AB84269
:1020900001DBB0EE480A84ED1C0A94ED1D1AF1EE46
:1020A000410AB4EEE00AF1EE10FA03D200E01EE0BD
:1020B000B0EE600A84ED1C0AB4EEC10AF1EE10FA2B
:1020C00006D8B5EEC00AF1EE10FA01DB31EE000AD7
:1020D00084ED1C0AB5EEC00A454DF1EE10FA09DD9B
:1020E000012211462846FEF72BFB002208E0B0EE45
:1020F000600A5FE7002201212846FEF721FB01224A
:1021000004212846FEF71CFB94ED1C0A4FF0804189
:10211000F0EEC00A80EE881ADFED360A61EE200A82
:10212000FCEEE00A10EE900A80B220824863A178AB
:102130003148012901D039B10EE0D4ED1B0AC0EDC0
:10214000000AD4ED1A0A05E0D4ED0A0AC0ED000A2F
:10215000D4ED0B0AC0ED010A80ED020A94ED0D0AE0
:10216000254980ED030A94ED0E0A182280ED040A39
:1021700094ED1D0A80ED050A01F12800FEF751F8E3
:102180001D481E212430FEF7D5F994ED150A84ED83
:10219000160A94ED100A84ED110A94ED130A84EDE9
:1021A000140A94ED120A84ED130AE088208194ED5C
:1021B0000B0A84ED0C0ABDEC028BBDE8F081000037
:1021C0000004004000000020AE473D41AE473DC145
:1021D000AE473DC10000BB44DB0F49400000014059
:1021E0000AD7A33CAE473D41CDCC4C3E0000000099
:1021F0000008024000C07F44240300207047FEE72F
:10220000F0B500230A24302537261F4611E000BF11
:10221000B4EB107F02D905EB107C01E006EB107CDB
:1022200001F813C001EB430C00015B1C8CF801703A
:10223000DBB29342ECD3F0BD2DE9F04186B014211E
:102240006846FEF707F82A480024016841F080013B
:102250000160016801F080010591016841F004010D
:102260000160016801F004010591016841F001017C
:102270000160016801F001010591016841F0100160
:102280000160016801F010010591016841F0080149
:1022900001600068174F00F008000590002205213A
:1022A0003846FEF74DFADFF85080BE140022314662
:1022B0004046FEF745FA052000900125CDE901547E
:1022C000694638460394FEF75FF902200095CDE990
:1022D000014069460948FEF757F90096CDE90154D7
:1022E000694640460394FEF74FF906B0BDE8F08119
:1022F0003038024000080240000C0240000002405A
:1023000010B58CB024216846FDF7A4FF00241348C3
:10231000099411490A94C0E900144FF6FF71C0E90D
:1023200002410461446184610320CDE9000401207D
:10233000CDE902040494CDE90540079469460748B5
:102340000894FFF702FB099409A904480A94FFF7CF
:10235000DFF90CB010BD0000000001406402002055
:1023600010B58EB000240794089409940A940B9435
:102370001C2168460C94FDF76DFF16484FF0804114
:1023800001601521C0E9011440F2FF31C0E90314D6
:102390008461FFF705FA4FF48050079007A90D48B4
:1023A000FFF768FA0B48FFF7D4FC0B940BA9094818
:1023B0000C94FFF7ADF96020CDE9000402940022EF
:1023C000694604480494FFF75CFC0248FFF730FCC0
:1023D0000EB010BDA402002010B586B00024114834
:1023E000009401940294039404940D4905940160AF
:1023F0005321C0E90114C46004618461FFF7D0F97E
:102400004FF48050009069460648FFF733FA2020C9
:10241000CDE9040404A90348FFF77AF906B010BD1A
:1024200000040040E402002010B500220F491048CB
:1024300000F08AFD08B1FEF794F80E490C4800F050
:1024400063FF08B1FEF78DF80B49094800F088FBDF
:1024500008B1FEF786F8064800F0ACFF002803D06C
:10246000BDE81040FEF77DB810BD0000D800002088
:10247000680300202402002028010020FEE77047A6
:102480000148FEF751BB0000040600202DE9F04191
:10249000044600680E46016C00EB4615D5F8080BA3
:1024A000276920234FF40042012F08D02C4FB94256
:1024B0004FD1010449D500BFC5F8082B4DE0DFF826
:1024C000A4C05FEA007E04F5717711D5614503D998
:1024D000000401D5C5F8082B2046FEF745FE3A4614
:1024E0000121206801F024FB0820C5F8080B34E026
:1024F0005FEA806E02D5C5F8083B2EE010F0280F89
:102500002BD1614501D90004D6D4C6EBC60004EB3B
:102510008000D5F8102BD0F80412C2F312028A1AE8
:10252000C0F81422D0F808221144C0F80812F1B201
:102530002046FEF7DFF986B9D4F8100268B93A46AA
:102540000121206801F0F4FA07E0800601D5C5F802
:10255000083BF1B22046FEF7CDF90020BDE8F0813E
:102560000A31544F0A30544F2DE9F84F0E46C1EB53
:10257000C60100EB810481460568D4E914103C349F
:10258000884202D90120BDE8F88F081AA16881426B
:1025900000D20846C01C870805EB46181BE000BFA8
:1025A000A0EB010AA068504500D282460AF1030060
:1025B000870899F8100000901FFA8AF3F2B22846B3
:1025C000E16801F03DFDE16801EB0A00E060A1690E
:1025D00001EB0A00A061D8F8180980B2B84205D30F
:1025E000D4E90501814201D20028D9D1D4E90501FD
:1025F000884208D806F00F0101208840D5F8341829
:102600008143C5F834180020BDE770477047FEF7D6
:10261000A3B8000030B593B030216846FDF71AFE2C
:1026200014210CA8FDF716FE19480025016841F099
:1026300080510160006800F08050119015480168D9
:1026400041F4804101600068022400F48040119050
:1026500001200090000401908001CDE90640042093
:102660000890A820CDE9090407200B906846FEF7E2
:102670008BFE0CA90F2081E831004FF4A0500F9081
:10268000E002109005210CA8FEF7AEFD13B030BD9E
:1026900040380240007000400548016841F4700174
:1026A000016003494FF00060803908607047000006
:1026B00088ED00E00148FFF707BA0000E4020020BF
:1026C000F0B50268254C264D264E274F274B4FF07C
:1026D000804CA04209D0604507D0A84205D0B04246
:1026E00003D0B84201D0984204D122F0700E4A685B
:1026F00042EA0E02A0421BD0604519D0A84217D072
:10270000B04215D0B84213D0984211D0184DA8420B
:102710000ED0184DA8420BD0174DA84208D0174D27
:10272000A84205D0164DA84202D0164DA84203D1AA
:1027300022F44075CA682A434D6922F080022A4378
:1027400002608A68C2620A688262A04201D098422E
:1027500001D10969016301214161F0BD000001401F
:102760000004004000080040000C0040000401404C
:102770000040014000440140004801400018004072
:10278000001C00400020004010B501F01F03012193
:10279000046A99408C430462016A9A4011430162C1
:1027A00010BD10B5846842EA032224F47F440A4332
:1027B0002243826010BD826822F070020A4342F018
:1027C0000701816070470000F0B5026A22F0010243
:1027D0000262036A42688469124E24F073050C6831
:1027E0002C4323F002058B682B430D4DA84201D0EA
:1027F000B04205D123F00807CB683B4323F0040324
:10280000A84201D0B04205D14D6922F4407215436F
:102810008A692A4342608461496841630362F0BD6A
:102820000000014000040140F0B5026A22F01002ED
:102830000262026A436884690D6824F4E64444EA4B
:1028400005248D6822F0200242EA05120F4D104E39
:10285000A84201D0B04206D1CF6822F0800242EAFD
:10286000071222F04002A84201D0B04207D14D69C0
:1028700023F4406343EA85038D6943EA850343609B
:102880008461496881630262F0BD0000000001407C
:1028900000040140F0B5026A22F480720262026A0A
:1028A0004368C46922F4007224F073050C68124E68
:1028B0002C438D6842EA05220E4DA84201D0B04259
:1028C00006D1CF6822F4006242EA072222F4806235
:1028D000A84201D0B04207D14D6923F4405343EAE6
:1028E00005138D6943EA05134360C4614968C163F8
:1028F0000262F0BD000001400004014030B5026AF0
:1029000022F480520262046A4268C3690D6823F4AB
:10291000E64343EA05238D6824F4005444EA053471
:10292000084DA84202D0084DA84204D14D6922F4B6
:10293000804242EA85124260C361496801640462D0
:1029400030BD0000000001400004014010B5036AE2
:10295000046A24F001040462846924F0F00444EA67
:10296000021423F00A020A438461026210BD10B50A
:10297000036A23F0100303628369046A23F470433B
:1029800043EA023224F0A00343EA011182610162AA
:1029900010BD2DE9F041D0F89832D0F89022DAB18C
:1029A00001EB810400EB84040025E6694EB1C1EB24
:1029B000C10703EB87035B6CB6FBF3F703FB1763FD
:1029C00023B1C2F814520020BDE8F08100231A465A
:1029D000E56100F07CFCF6E70220F5E770B50546FE
:1029E000D0F8904200F088FBC4F80C02D5F89002B1
:1029F00048B1D5F89412D4F80402CA6804F50371FA
:102A00009047002070BD022070BD70B504460026BE
:102A1000812100F0B7FA002501212046E56200F08F
:102A2000B1FA82212046C4F8585100F0ABFA25646F
:102A3000D4F8900248B1D4F8940204F524744068A4
:102A40008047206801F02EFB2560304670BD10B530
:102A5000D0E9A44159B194F80002FF2807D08B684F
:102A600094F8012221469847FF2084F800020020B4
:102A700010BD00000A210180004870474C01002071
:102A800043210180004870479C01002043210180C0
:102A900000487047580100204321018000487047DA
:102AA000E00100202DE9F04104460026007C4FF4AF
:102AB0000077012590B3402302228121204600F0B7
:102AC00063FB4023E56202220121204600F05CFB0B
:102AD0000823032282212046C4F8585100F054FBF9
:102AE0004FF40770256401F021FDC4F89002F8B19D
:102AF0000546D4F89402006880470020C5F8140207
:102B0000C5F81802207CD5F8042298B14023012191
:102B1000204600F045FB3046BDE8F081FFE73B462C
:102B200002228121204600F02FFB3B46E562CAE7E6
:102B30000126F0E73B46EAE710B5D0F8901269B1FC
:102B4000027C002AD1F8042205D04023012100F0A4
:102B500027FB002010BD4FF40073F7E7022010BDE3
:102B600002460220002902D00020C2F894127047C9
:102B7000D0F89002C0F8041200207047D0F89002FC
:102B8000C0F81022C0F80812002070472DE9FC415F
:102B90000546D0F8907200208DF80000ADF80400D2
:102BA000064608780C4610F0600121D020293BD160
:102BB000E288AAB10006607807D5D5F894128B6830
:102BC00039469847E288394626E087F80002A0791E
:102BD00087F80102E2883946284600F06AF828E0C2
:102BE000D5F89412607800228B682146984720E03F
:102BF000607820B10A2809D00B2815D110E095F88B
:102C00007402032810D1022201A905E095F874028C
:102C1000032809D101226946284600F064F808E03B
:102C200095F87402032804D02146284600F036F8AF
:102C300002263046BDE8FC8110B5D0F89012A1B153
:102C4000D1F814220AB1012010BD0122C1F81422CA
:102C5000D1F810220263B1F8102293B2D1F8082201
:102C6000812100F034FB002010BD022010BD10B502
:102C7000D0F88C2252689047002010BD134610B542
:102C80000A46002100F08CFA002010BD134610B552
:102C90000A46002100F01BFB002010BD10B50446C1
:102CA000802100F0F9FA2046BDE81040002100F034
:102CB000F3BA10B50323C0F84821C0F86C32C0F84D
:102CC0004C2113460A46002100F06AFA002010BD8C
:102CD00010B505210023C0F86C121A46194600F001
:102CE0005FFA002010BD10B50223C261C0F86C323B
:102CF000026213460A46002100F0E9FA002010BDE6
:102D000010B504210023C0F86C121A46194600F0D1
:102D1000DEFA002010BD000010B50A46024903A0EB
:102D200000F0E2F8004810BD0C0A002043444320A4
:102D3000436F6E6669670000122008800048704784
:102D4000F800002010B50A46024903A000F0CCF8B4
:102D5000004810BD0C0A002043444320496E7465AE
:102D600072666163650000000420088000487047B7
:102D7000F400002010B50A46024903A000F0B4F8A0
:102D8000004810BD0C0A002053544D6963726F65F2
:102D90006C656374726F6E696373000010B50A46E8
:102DA000024903A000F0A0F8004810BD0C0A002062
:102DB00053544D3332205669727475616C20436FE1
:102DC0006D506F727400000010B51A2008800A4818
:102DD0000168001D0468001D0068081809D0082259
:102DE0000649FFF70DFA0549042210312046FFF786
:102DF00007FA0248801E10BD107AFF1F0E01002046
:102E0000F8B5044648880D46010A08294BD2DFE888
:102E100001F04A0409174A4A4048D4F88812207C35
:102E20000A6832E0207C02260028D4F88C0205D003
:102E3000C16A684688470146467041E0816AF8E702
:102E4000C0B206282FD2DFE800F003080D12171CCD
:102E5000D4F88812207C4A6817E0D4F88812207CC5
:102E60008A6812E0D4F88812207CCA680DE0D4F891
:102E70008812207C0A6908E0D4F88812207C4A690C
:102E800003E0D4F88812207C8A696946904701469D
:102E900016E0207C38B9D4F88C02416B684688472C
:102EA000F5E7207C20B129462046FFF7F7FEF8BD64
:102EB000D4F88C02016B68468847014607204870A9
:102EC000BDF8000048B1EA8852B1824200D90246FA
:102ED000ADF800202046FFF706FFE8880028E6D17D
:102EE0002046FFF70DFFF8BD70B5002300281ED067
:102EF0000446002502E06D1CEDB2641C2678002E0D
:102F0000F9D1022404EB450414801278CA545B1CE6
:102F10000322CA5400245B1C06E0CA545B1CDAB2CC
:102F20008C54521CD3B2401C0278002AF5D170BDDB
:102F300001004FF0000004D0012901D0022901D086
:102F4000022070470120704710B580B1D0F88C3254
:102F500013B10023C0F88C3209B1C0F888120121E6
:102F600080F87412027000F0CBF8002010BD02202F
:102F700010BD10B5D0F89802FDF7F0FCBDE8104088
:102F8000FFF7D6BF10B5D0F89802FDF7C1FCBDE839
:102F90001040FFF7CDBF2DE9F0411746044651B16F
:102FA000D4F88C0242691AB194F87402032851D003
:102FB0000220BDE8F081D4F86C32002504F1140041
:102FC000022B03D0042B3AD0C3B33CE0D0E9036317
:102FD0009E4207D9F11AC1608AB239462046FFF7EE
:102FE00055FE12E08068B0FBF3F103FB110199B9C3
:102FF000984211D3D4F8701288420DD200221146A3
:103000002046FFF743FEC4F8705200231A461946C3
:10301000204600F0C5F816E0D4F88C02C16829B14A
:1030200094F87402032801D1204688478021204665
:1030300000F032F92046FFF74BFE04E0FFE7802165
:10304000204600F029F994F87802012804D184F888
:10305000785201E0204690470020AAE770B5154657
:10306000044649B1D4F88C0282691AB194F874020A
:10307000032830D0022070BDD4F86C1204F5A07083
:10308000032902D005291ED027E0D0E903218A4276
:103090000BD9531AC3600846834200D303469AB241
:1030A00029462046FFF7EAFD17E0D4F88C020169B3
:1030B00029B194F87402032801D12046884720469C
:1030C000FFF71EFE09E000200146C4F86C0220460E
:1030D00000F0E2F801E020469047002070BD00209B
:1030E000704710B5012180F87412D0F88C22017954
:1030F00052689047002010BDD0F89802FDF75CBCE4
:1031000010B5017839BB15490222C1F80404C0F892
:1031100098124FF0A0400860042048600020C1E9E8
:103120000320C1E9062008624862C86208630846B5
:10313000FDF734FF08B1FDF714FA80210748FDF7C9
:10314000A6FB402200210548FDF7A5FB80220121B6
:103150000248FDF7A0FB002010BD0000040600207F
:103160000A0601F07F01D0F89802C1EBC10100EB23
:10317000810002D590F83E00704790F8FE0170473C
:10318000002070470020704710B51C461346D0F849
:1031900098022246FDF719FCBDE81040FFF7C8BEB3
:1031A00010B5D0F89802FDF740FCBDE81040FFF7DD
:1031B000BFBE70B50022044640231146FFF7E4FF6E
:1031C00040260125C4F85061334600228021204664
:1031D000C4F84451FFF7D8FF6662A56184F87452C1
:1031E0000020C4F86C026060C4F87C02D4F890023D
:1031F00028B1D4F88C020021426820469047002074
:1032000070BD90F8751280F874120020704710B5E8
:1032100090F87412032904D1D0F88C12C96901B155
:103220008847002010BD01740020704710B5D0F809
:103230009802FDF785FFBDE81040FFF779BE70B535
:10324000044600F52070054600F04AF80120C4F855
:103250006C02B4F88602C4F8700294F8800210F090
:103260001F010AD001290DD0022910D000F08001E1
:10327000204600F011F8002070BD2946204600F0DD
:103280009EF8F8E72946204600F0CAF9F3E72946F8
:10329000204600F01DF9EEE710B5D0F89802FDF7D2
:1032A000E8FBBDE81040FFF743BE10B5D0F8980228
:1032B000FDF761FFBDE81040FFF73ABE90F87412C9
:1032C00080F87512042180F874120020704710B540
:1032D000D0F89802FDF707FCBDE81040FFF728BEC4
:1032E0000A7802704A7842708A78CB7802EB03221F
:1032F00042800A794B7902EB032282808A79C9796C
:1033000002EB0121C18070470246002011B1C2F8D2
:103310008C1270470220704710B5D0F88C2202241E
:103320001AB11268904700B90024204610BD000071
:1033300070B50E461E4D897804462970012931D892
:1033400094F8740202280BD003280FD0314620468F
:10335000FFF7A4FC29782046BDE87040FFF787BC42
:10336000D9B10320616084F8740209E071B160682A
:10337000884212D0C1B22046FFF779FC29786160FB
:103380002046FFF7C9FF02280CD006E0022084F88F
:10339000740220466160FFF76AFC2046BDE8704079
:1033A000FFF7AEBC31462046BDE87040FFF776BC63
:1033B0004801002010B5FFF778FF002010BD2DE96F
:1033C000F0410A78002612F0600208D0202A01D0CD
:1033D000402A70D1D0F88C22926890476DE04B78EB
:1033E000002201250A2B66D2DFE803F0405D655715
:1033F000650805652C29FFF703FD5EE00446888813
:10340000D8B9C888C8B94888802816D200F07F0784
:1034100094F87402032810D084F876723946204656
:10342000FFF704FF2046FFF76BFC1FB1022084F872
:10343000740242E084F874523FE020463BE0FFF71C
:1034400077FF3AE0CB88012B35D190F87432012B0D
:1034500004D0022B02D0032B2DD104E08260012284
:1034600000F1080116E00122011D13E090F874221A
:10347000012A03D0022A01D0032A1CD1CA88022AB9
:1034800019D1C560D0F87C1209B10321C1600222B4
:1034900000F10C01FFF727FC0FE0498801290CD14E
:1034A000C0F87C5211E090F87432012B08D0022B46
:1034B00006D0032B04D0FFF7F1FB3046BDE8F081C6
:1034C00049880129F9D1C0F87C22FFF719FCF4E7FB
:1034D0002DE9F0410A46044610780027097910F0DA
:1034E00060030AD0202B01D0402B50D1D4F88C029D
:1034F00011468368204698478FE0C0F341100128A9
:1035000006D05078D0B301282AD003283FD107E055
:10351000D4F88C02114683682046BDE8F041184774
:1035200094F87402022802D0032872D10AE071B321
:1035300080296ED02046FFF7AFFE80212046FFF79E
:10354000ABFE6AE0508838B931B1802904D0D08808
:1035500010B92046FFF7A0FE2046FFF7D1FB5CE044
:1035600094F874020228E2D0032852D1508898BB04
:103570004806F1D02046FFF7FCFCEDE7FFE794F8A2
:1035800074020026022803D0032842D112E040E052
:1035900009B180293DD1080601F07F0000EB8000D1
:1035A00004EB800101D5143101E001F5A071022284
:1035B0000E602AE0080601F00F0000EB800004EB2B
:1035C00080000AD5806920B301F07F0000EB800005
:1035D00004EB800514350BE01FE0D0F84401C0B1C6
:1035E00001F07F0000EB800004EB800505F5A0757D
:1035F00041B1802906D02046FFF7B2FD10B101206D
:10360000286000E02E60022229462046FFF76BFB6F
:1036100003E011462046FFF741FB3846BDE8F08144
:1036200070B5054608780C4610F0600003D02028DD
:1036300001D0402816D195F87402012803D0022841
:1036400001D003280ED1207901280BD8D5F88C029F
:10365000826828469047E188014306D12846FFF753
:103660004FFB02E02846FFF719FB002070BD000069
:1036700070B50A78012302F00F054E78AB401B4C61
:10368000D0F81C58012E17D045EA0343C0F81C3867
:1036900000EB4210D0F8002B12040BD4D0F8002B12
:1036A0000B89C978C3F30A031A4344EA81410A43E8
:1036B000C0F8002B002070BD9BB21D43C0F81C5801
:1036C00000EB4210D0F800391B04F3D4D0F80039D5
:1036D0000D89C978C5F30A0589042B4341EA825153
:1036E0000B432343C0F80039E4E7000000800010DA
:1036F000D0F800196FF30A01C0F80019D0F80818C3
:10370000C1F34101022905D1D0F8001941F00301AC
:10371000C0F80019D0F8041841F48071C0F80418FA
:103720000020704770B5044606990A9E049D0D98C6
:10373000012916D0E06840F04000E060204600F02B
:103740002BF8A16B1EB321F48031A163012D07D1A9
:10375000A16841F00601A160A16841F02001A160CB
:1037600070BDA16B21F48031A163E168094A114069
:10377000E160E16821F44011E160012803D1E068D3
:1037800040F48010E060204600F006F8DEE741F4E7
:103790008031DAE7BFFFBDFF01220C4902E0521C75
:1037A0008A420BD80369002BF9DA026942F0010260
:1037B0000261012204E0521C8A4201D903207047B1
:1037C0000369DB07F7D1002070470000400D0300BC
:1037D00030B50B784D78012203F00F0402FA04F49F
:1037E000012DD0F83C5817D025EA0444C0F83C48D5
:1037F000D0F81C48097801F00F018A4024EA024100
:10380000C0F81C1800EB4310D0F8001B0E4A114002
:10381000C0F8001B002030BDA4B2A543C0F83C583E
:10382000D0F81C48097801F00F018A4091B28C430E
:10383000C0F81C4800EB4310D0F80019034A1140AF
:10384000C0F80019E6E700000078F3EF007833ECE9
:1038500010B5D0F8041821F00201C0F804180320B4
:10386000FCF780FE002010BD10B5D0F8041841F020
:103870000201C0F804180320FCF774FE002010BDFC
:103880002DE9F04F0025DDE90BCB0E460446DDF8AF
:103890004090099F2846294604EB8002C2F8041193
:1038A000401C0F28F8D3B9F1000F204618D000684B
:1038B00020F400122260A06B40F40022A2630846AC
:1038C0008846C4F8000ED4F800182046C4F8001842
:1038D000BCF1010F10D0D0F8001841F0030110E046
:1038E000806B40F40012A263A06B20F40022A2635C
:1038F000A06B20F48022E1E7D0F800180BB141F072
:103900000101C0F80018102100F0A0FA00B1012553
:10391000204600F08BFA00B101254046C4F810881B
:10392000C4F81488C4F81C8800214FF000634FF0DD
:1039300090484FF67F3A14E004EB4112D2F800C9E8
:10394000BCF1000F06DA11B1C2F8008904E0C4F836
:10395000003901E0C2F80009C2F81009C2F808A94C
:10396000491C8E42E8D8002115E000BF04EB41124B
:10397000D2F800CBBCF1000F06DA11B1C2F8008B0F
:1039800004E0C4F8003B01E0C2F8000BC2F8100BE1
:10399000C2F808AB491C8E42E8D8D4F8101821F4BC
:1039A00080722146C4F81028012F08D1134AC1F8AB
:1039B0003028D1F83018124A1143C4F83018A061E9
:1039C0006FF0804060611FB9A06940F01000A061F5
:1039D000A0690C490843A061BBF1000F03D0A069A6
:1039E00040F00800A061B9F1010F03D1A0690649B8
:1039F0000843A0612846BDE8F08F00000001800068
:103A00000300010000383C8004000040816821F080
:103A1000010181600020704770B50D784E78434CED
:103A2000EBB200EB4313012E1FD0D3F8100B6FF352
:103A30001200C3F8100BD3F8100B2040C3F8100B82
:103A4000486908B188684861D3F8100B40F4002039
:103A5000C3F8100BD3F8100B8C68C4F31204204386
:103A6000C3F8100B012A55D058E04E69002ED3F848
:103A7000106932D06FF31206C3F81069D3F81069D9
:103A80002640C3F810694E698C68A64200D94C6183
:103A9000D3F8104944F40024C3F81049D3F810496E
:103AA0004E69C6F312063443C3F81049012A22D0E6
:103AB00000EB4512D2F8003943F00443C2F8003954
:103AC0004A6932B3D0F83428097801F00F03012194
:103AD00099400A43C0F8342826E02640C3F810690C
:103AE000D3F8104944F40024C3F81049D3F810491E
:103AF0006FF31204D8E7096919B100EB4512C2F857
:103B0000141900EB4510D0F8001941F00441C0F839
:103B1000001909E0C86808B1C3F8140BD3F8000B0A
:103B200040F00440C3F8000B002070BDFFFF07E029
:103B300010B5036C134CA34203D9D0F8003B002B03
:103B40001EDB0023C0F8103BD0F8103B43F40023E9
:103B5000C0F8103BD0F8103B43F01803C0F8103BFE
:103B6000D0F8103B43F0C043C0F8103B012907D107
:103B7000C0F8142BD0F8001B41F08021C0F8001BC6
:103B8000002010BD0A30544F4A780B78012A00EB10
:103B900043100BD0D0F8002B22F40012C0F8002BF9
:103BA000C978032914D0022912D017E0D0F80029CF
:103BB00022F40012C0F80029C978032901D0022993
:103BC0000CD1D0F8001941F08051C0F8001905E07F
:103BD000D0F8001B41F08051C0F8001B0020704756
:103BE0000A784B78D1B200EB4110012B12D0D0F8FB
:103BF000001B002906DB2AB1D0F8001B21F0804110
:103C0000C0F8001BD0F8001B41F40011C0F8001BE5
:103C100000207047D0F80019002906DB2AB1D0F83F
:103C2000001921F08041C0F80019D0F8001941F4C2
:103C30000011C0F80019EBE7F8B50C784F78774D14
:103C4000E3B26FF0604600EB4313012F26D0D3F8A8
:103C5000104B6FF31204C3F8104BD3F8104B2C40E9
:103C6000C3F8104B4C69002C74D08D682C44641E32
:103C7000B4FBF5F4D3F8105BA4B206EAC4463543AE
:103C8000C3F8105BD3F8105B8E686643C6F312046A
:103C90002543C3F8105B012A71D0A6E04F691FB31A
:103CA000D3F810796FF31207C3F81079D3F81079AD
:103CB0002F40C3F810794F698D682F447F1EB7FBE2
:103CC000F5F506EAC545D3F810693543C3F8105930
:103CD000D3F810594E69C6F312063543C3F810598C
:103CE000CD78012D10D01BE0D3F810692E40C3F819
:103CF0001069D3F8105945F40025C3F81059D3F8CA
:103D000010596FF3120509E0D3F8105925F0C0459A
:103D1000C3F81059D3F8105945F00055C3F810599D
:103D2000012A18D000EB4413D3F8004944F00444AE
:103D3000C3F80049CC78012C2FD04A6962B3D0F87F
:103D40003428097801F00F03012199400A43C0F893
:103D5000342860E036E00A691AB100EB4413C3F876
:103D60001429C97801290FD1D0F80818C90500EB2A
:103D70004411D1F8002903D442F0005202E030E0AF
:103D800042F08052C1F8002900EB4410D0F800192D
:103D900041F00441C0F800193DE0D0F80848E405BE
:103DA000D3F8004902D444F0005401E044F08054B8
:103DB000C3F8004900928A8A93B20A78C96800F071
:103DC0003FF928E0D3F8104B8D68C5F312052C435A
:103DD000C3F8104BD3F8104B44F40024C3F8104B35
:103DE00059E7CA680AB1C3F8142BC97801290CD164
:103DF000D0F80808C005D3F8000B02D440F00050FA
:103E000001E040F08050C3F8000BD3F8000B40F005
:103E10000440C3F8000B0020F8BD0000FFFF07E0DE
:103E2000816841F00101816000207047002110226B
:103E30000261054A491C914201D903207047036978
:103E4000DB06F7D400207047400D0300002220233A
:103E500043EA811101610549521C8A4201D90320BC
:103E6000704703699B06F7D400207047400D03009C
:103E7000D0F8080810F0060004D0022803D0062865
:103E800001D00F20704702207047406900F0010008
:103E90007047D0F81818D0F81C08084080B2704756
:103EA000D0F81818D0F81C080840000C704710B55E
:103EB000D0F81038D0F8342801F00F0400EB41108E
:103EC000E24002F00102D0F8080943EAC2121040B1
:103ED00010BD00EB4111D1F8081BD0F814080840C0
:103EE00070474169806908407047D21C10B593083B
:103EF000002200F5805002E00468521C10C19A4272
:103F0000FAD3084610BD10B5C26822F0C042C260A4
:103F1000012902D029B1012010BDC16841F0005132
:103F200002E0C16841F08041C1603220FCF71AFB19
:103F3000002010BDD0F8002822F4FE62C0F800284E
:103F4000D0F800284FF4FE6303EA01110A43C0F8D9
:103F50000028002070470000022A3ED1264A274B45
:103F60000A449A4201D20F2138E0254A254B0A44DF
:103F70009A4201D20E2131E0234A244B0A449A424C
:103F800001D20D212AE0224A224B0A449A4201D250
:103F90000C2123E0204A214B0A449A4201D20B21F2
:103FA0001CE01F4A1F4B0A449A4201D20A2115E025
:103FB0001D4A1E4B0A449A420FD31D4A1D4B0A4408
:103FC0009A4201D2082109E01B4A11441B4A91423E
:103FD00001D2072102E0062100E00921C26822F493
:103FE0007052C260C2684FF4705303EA81210A43E1
:103FF000C260002070470000405327FF00350C00CE
:10400000401E1BFF40420F0000DC0BFF804F1200E0
:10401000808CF9FE20D6130060B6E5FE60E3160042
:1040200000D3CEFE40771B00C05BB3FEC0912100E1
:1040300000CA91FE20753800E05459FEE09C410012
:1040400010B5029C64B9DB1C9C0800EB0230002315
:1040500000F5805002E004C902605B1CA342FAD361
:10406000002010BDFEE70907090E002804DB00F15F
:10407000E02080F80014704700F00F0000F1E0200D
:1040800080F8141D704702E008C8121F08C1002AFA
:10409000FAD170477047002001E001C1121F002AC9
:1040A000FBD1704710B5002821D0114B0022001F12
:1040B000196803E0814203D80A4649680029F9D10A
:1040C00052B11368841A9C4204D1006818441060ED
:1040D000104602E0506000E0186039B102680B1A27
:1040E000934203D10B681A4402604968416010BDD5
:1040F0005C02002070B5874CDFED870AB5EEC00A80
:1041000094ED002AF1EE10FA1BDB10EE103A834D0D
:10411000AB4216DA22EE001AC1EE201AC0ED001AE8
:1041200094ED011A21EE001AC1EE201AC1ED001A19
:1041300094ED021A21EE000A80EE201A82ED001A98
:1041400070BD10EE103A754D6D421D44DFED741ACE
:10415000704B1033B5F5000F93ED001A28D271EEB5
:10416000C02AC2EEA01A70EE602A82EEA00A22EEE9
:10417000212A01EE002A71EE800A82EE201A80EDDB
:10418000001A94ED011A93ED012A21EE211A02EE94
:10419000001A81EE202A81ED002A94ED021A21EE08
:1041A000211AD3ED021A01EE801A81EE200A33E0C3
:1041B00010EE104A5B4D5C4E2544DFED5C2A554CF9
:1041C0002034B54294ED002A29D232EEC03ADFED18
:1041D000582A70EE611AC3EE220A81EEA20A61EE3D
:1041E000201A42EE001A30EE801A81EE812A80ED0C
:1041F000002AD3ED011A94ED012A61EEA01A42EED5
:10420000001A81EE812A81ED002AD3ED021A61EEB7
:10421000A00AD4ED021A69E082ED000A70BD10EE2A
:10422000103A444D444E2B443A4DB2EE0E3A3035DE
:10423000B342D5ED001A26D233EE403A9FED3F1A35
:1042400070EE622AC3EE010A82EE810A22EE202A73
:1042500001EE802A30EE801AC2EE011AC0ED001A7B
:10426000D4ED011A95ED012A61EEA01A42EE001A72
:1042700081EE812A81ED002AD4ED021A61EEA00AB6
:10428000D5ED021A32E010EE103A2D4C1C44214BB1
:104290004033B4F5800F93ED001A2CD2F3EE060AEA
:1042A000B1EE0C2A70EEC02AC2EE820A70EE432AEA
:1042B00082EE820A61EEA01A41EE001A30EE801AF8
:1042C00081EE812A80ED002AD5ED011A93ED012AB5
:1042D00061EEA01A42EE001A81EE812A81ED002AD9
:1042E000D5ED021A61EEA00AD3ED021A41EE800A62
:1042F00080EE810A90E710EE104A124DAC428DDB41
:1043000080ED001A93ED010A81ED000A93ED020A97
:1043100082E700008800002033331340333313401A
:1043200033339340CDCC6CBFF6283400295CC740B2
:10433000D8A3D03FD7A338BFD7A3A800EC510C41D6
:10434000000090BE0000B0414D4910B5D1ED030A08
:10435000B5EEC00AF1EE10FA07DB10EE101A494A6A
:10436000914202DAC0ED000A10BD10EE101A454A63
:10437000524211449FED441A414A1032B1F5000FE8
:1043800016D231EE402A9FED411AC2EE011A30EEEC
:10439000412A82EE010A92ED031A60EEA10A41EE73
:1043A000000A31EE800A80EE801A80ED001A10BDFE
:1043B00010EE101A364B374C0B443149DFED361AEC
:1043C0002031A34214D231EEC02ADFED341A30EE90
:1043D000411AC2EE210A81EE210A92ED021AD1EDB4
:1043E000031A21EE201A01EE801A30EE800A3EE018
:1043F00010EE102A2A4B2B4C1344214AB2EE0E2AFF
:104400003032A34292ED031A14D272EE402A9FED8D
:10441000262A70EE611AC2EE820A81EE820AD1ED7E
:10442000021A61EEA01A41EE001A30EE800AC1EEC7
:10443000800A97E710EE101A1C4A0A4410494031CE
:10444000B2F5800FD1ED030A14D2F3EE061AF1EEA5
:104450000C2A31EEC03A30EE422AC3EE221A82EE26
:10446000220A21EE211A00EE801A31EE800AC1EEF6
:10447000000A77E710EE101A0D4A9142D9DA10BD02
:1044800088000020333313403333934033331340D9
:10449000CDCC6CBFF6283400295CC740D8A3D03FF0
:1044A000D7A338BFD7A3A800EC510C41000090BEA1
:1044B0000000B04118491748B1F803100180FCF71B
:1044C00053F9FEF7A7F8FDF7B7FEFDF719FFFDF763
:1044D00047FFFDF781FFFDF7A7FF104944F61F6076
:1044E000086004210E48FDF7B1FA0D480021403064
:1044F000FDF74CFC0B4C012211462046FCF720F93D
:10450000002204212046FCF71BF90749002008611E
:10451000FEE7000064030020000000202C0400409F
:10452000640200200008024000000140F0B50B309A
:10453000154D20F007010024144A0FE003688B4258
:104540000BD38B4205D95E1A43184768C3E900674D
:1045500000E04368136002C004E0021D10680028F8
:10456000ECD12046002802D1286808B10020F0BD17
:10457000064A07481060074A121A22F00702C0E9EB
:10458000002401202860D7E7600200205C020020A0
:10459000141C0020103C002000000000000000005F
:1045A0000102030406070809C845000800000020AE
:1045B00064020000CC020008E44600086402002007
:1045C000AC7900009640000831F31603480D3333F0
:1045D00013406F12033A021673700403600606302C
:1045E00009CDCC0C403333A3401D40CDCC2C041E50
:1045F000AC3F333383142E334066662608223F1ABD
:1046000060181A4C243E204085EB11101C6666A6EB
:104610001C180A1340D7A3F03E9A9959101AF604B1
:10462000150640392D1B0869041A75041A9D041AD1
:10463000C9041A19041A45041704030904120114C1
:1046400002020216408304405726020102030103BE
:104650001A1A03132D031B0829041A250413110524
:104660001A082F1182105324F4130A062A02C029B3
:104670001C1C090243571125C03209041B01020BFF
:104680001305241610010524011009010424020257
:10469000052406170107058203081C1009048D3242
:1046A0000A1D07050102432C070581070938442A22
:1046B00040072A8107112B0907440A3B044413A52C
:1046C0002A1B080B04138D2B42081A4F0C13932935
:1046D0001B08DD04C11A8D181A81041A99041A7571
:0446E0000481000051
:040000050800018965
:00000001FF
